S01700004C617365724D6F64756C65323331332E73726563E7
S113000012C02AC029C028C027C026C025C024C0C9
S113001023C022C021C020C01FC01EC01DC01CC0E0
S11300201BC01AC019C011241FBECFEDCDBF10E0F4
S1130030A0E6B0E0EEEBF2E002C005900D92A2362D
S1130040B107D9F720E0A2E6B0E001C01D92A736BF
S1130050B207E1F7AFD031C1D3CF00C000C000C0B8
S113006000C000C0000000000895BD98BF98C59866
S1130070C7980895BD9AF1DF1DD00895BF9AEDDFAA
S1130080BD98EBDFBF98E9DFBD9AE7DF13D0089591
S1130090082EBD9AE2DF802D0DD0882311F002D006
S11300A0F8CF0895BF9ABD9AD8DFBF98D6DFBD9820
S11300B0D4DF08950894881F01C0880F59F0BF9AAF
S11300C018F40000BD9802C0BD9A00C0C6DFBF98F6
S11300D0C4DFF3CFBF9ABD98C0DFBF98B79BFECFF4
S11300E08827B59981E0B9DF99270895882701C049
S11300F081E071E0BF9ABD98B0DFBF98AEDFB79BD7
S1130100FECF8894B5990894771FA0F7BF9A8130E1
S113011011F0BD9801C0BD9AA0DFBF98B79BFECF78
S11301209CDF872F9927089512B8599A8AB188615C
S11301308AB98FE089B908955D9BFECF8CB9089583
S113014084ECA6DF80E0B6DF84E0B4DFABDF0895A3
S113015084EC90DF80916000813041F484EC98DF7E
S113016082E0A8DF8CE1A6DF9DDF13C081E1A2DF7E
S11301708FEFA0DF97DF84EC8BDF84E09BDF88E2E6
S113018099DF90DF84EC84DF85E494DF81E092DF03
S113019089DFD6DF0895CF9384EC7ADF81E08ADFAC
S11301A081DF85EC75DFA2DFC82F7CDFC0FDF4CFD3
S11301B0CF910895B99AB8DF58DF2FEF8FEF96E803
S11301C0215080409040E1F700C00000C1DFCC2402
S11301D0C39480916000811107C08CEC9CE101976D
S11301E0F1F700C0000001C0D6DF84EC51DF8FE8D6
S11301F061DF58DF85EC4CDF7BDFD82EC82FD0E0E1
S113020075DF082F10E04EDF80916000813009F423
S113021097DF839907C080916200813019F4CD2D56
S1130220C06FD0E08DE590E087DFCE0185DFC801A7
S113023083DF80916500909166000196909366003B
S11302408093650083992DC080916200811129C03B
S1130250C0926200C19AE0906600F12C8091630024
S1130260909164008E299F29909364008093630089
S11302708DE590E061DF8FEF90E05EDF80916300B9
S11302809091640059DF809165009091660054DF7D
S11302901092660010926500109264001092630040
S11302A098CF839B96CF80916200813009F091CFE3
S11102B01092620088B318BA8CCFF894FFCF76
S10502BE010039
S9030000FC
