:100000004CC0000067C0000065C0000063C0000075
:1000100061C000005FC000005DC000005BC0000068
:1000200059C0000057C0000055C0000053C0000078
:1000300051C000004FC000004DC000004BC0000088
:1000400049C0000047C0000045C0000043C0000098
:1000500041C000003FC000003DC000003BC00000A8
:1000600039C0000037C0000035C0000033C00000B8
:1000700031C000002FC000002DC000002BC00000C8
:1000800029C0000027C0000025C00000390142013E
:100090004B0154015D0166016A0111241FBECFEFBF
:1000A000D0E4DEBFCDBF11E0A0E0B1E0E0E6F9E0D2
:1000B00000E00BBF02C007900D92A230B107D9F744
:1000C00021E0A2E0B1E001C01D92A031B207E1F74A
:1000D000E1D144C495CFCF93DF9311B8EAE7F0E0C4
:1000E000808184608083ACE7B0E08C9180648C93E5
:1000F0008C91887F8C93808180628083CBE7D0E075
:100100008881887F88838C9180628C9380818068CD
:100110008083808180648083DF91CF910895E4ECB7
:10012000F0E011821082A0ECB0E08C9182608C93A0
:10013000A1ECB0E08C9188618C9387E090E0918392
:100140008083089580EB84B98DE58CBD0895ECEC37
:10015000F0E011821082A8ECB0E08C9182608C9368
:10016000A9ECB0E08C9188618C938FE090E0918352
:1001700080830895E0ECF0E0908195FFFDCF8093BF
:10018000C60008958EBD0DB407FEFDCF0895E8ECBE
:10019000F0E080818823ECF78091CE0008958CE513
:1001A00090E0E8DF8091040190E0E4DF80910501B8
:1001B00090E0E0DF8091060190E0DCDF80910701B4
:1001C00090E0D8DF8091080190E0D4DF80910901B0
:1001D00090E0D0DF81E080930A0108958F929F9292
:1001E000AF92BF92CF92DF92EF92FF92CF93DF93C5
:1001F000C0910B01C63071F160917900673128F12F
:1002000070E080E090E06AD26B017C0125E83BEE73
:100210004DE950ECF1D220E030E249E454E466D1FB
:100220004B015C0125EE30ED40E151E4C701B60120
:100230005DD19B01AC01C501B401BCD140D3D0E07C
:10024000CC5FDE4F1FD2688305C0D0E0CC5FDE4FAD
:1002500089E18883ECE7F0E08081887F808380916A
:100260000B0190E087309105C0F5FC01EA5BFF4F80
:100270006FC3ECE7F0E080818160808381E0809350
:100280000B012BC0ECE7F0E080818260808382E08C
:1002900080930B0122C0ECE7F0E0808183608083D3
:1002A00083E080930B0119C0ECE7F0E0808184606B
:1002B000808384E080930B0110C0ECE7F0E0808144
:1002C0008560808385E080930B0107C086E0809382
:1002D0000B0103C064DF10920B01DF91CF91FF90FF
:1002E000EF90DF90CF90BF90AF909F908F90089548
:1002F00085B115B808952C9A0895CF93DF93809116
:1003000000018130E1F038F0823009F44DC08330D3
:1003100009F45CC06CC0ECDF84E990E033DF80E07E
:1003200090E030DFCEB580E090E02CDF8EB5E3DFEB
:10033000CC230CF45CC081E08093000158C0D8DF6E
:1003400080E890E01FDF80E090E01CDFCEB580E029
:1003500090E018DFDEB5CFDFC5FF23C0CC23F4F07B
:100360008C2F90E04D2F50E0569547959C01369587
:10037000322F222737952795242B352B30930D01CB
:1003800020930C01969587958770992790930F017C
:1003900080930E0182E08093000129C01092000139
:1003A00026C01092000123C08EE590E0E3DE80912C
:1003B0000E0190910F01DEDE80910C0190910D01F4
:1003C000D9DE1092000110920A0111C084E990E078
:1003D000D9DE80E090E0D6DE8EB580E090E0D2DE1F
:1003E0008EB589DF8EEF90E0C5DE10920001DF91BF
:1003F000CF910895CCDE8D35E9F708950F931F93C3
:10040000CF93DF93F7DFC3DEC82F8DE590E0B2DE38
:100410008C2F90E0AFDECF3F21F5B9DEC82FD0E0C2
:10042000B6DE082F10E09C2F8827802B912B20917F
:10043000020130910301821B930B9C0122F42227BD
:100440003327281B390BC90195DECE0193DEC80185
:1004500091DE109203011092020182E080930A0162
:1004600014C095DE90E086DE809102019091030138
:100470000196909303018093020180910A018230DA
:1004800021F410920A0110920B01DF91CF911F917C
:100490000F91089544DE2FEF8FE794E021508040C4
:1004A0009040E1F700C0000052DE2FEF8FE794E0AC
:1004B000215080409040E1F700C000000CDE2FEF9B
:1004C0008FE794E0215080409040E1F700C00000A9
:1004D00039DE94DF80910A01813009F40EDF8091CA
:1004E0000A018111F6CF7ADEF4CF5058BB27AA2734
:1004F0000ED048C139D130F03ED120F031F49F3FC9
:1005000011F41EF42EC10EF4E095E7FB24C1E92F8F
:100510004AD180F3BA17620773078407950718F06A
:1005200071F49EF562C10EF4E0950B2EBA2FA02D4A
:100530000B01B90190010C01CA01A0011124FF2790
:10054000591B99F0593F50F4503E68F11A16F0408B
:10055000A22F232F342F4427585FF3CF469537958A
:100560002795A795F0405395C9F77EF41F16BA0B4F
:10057000620B730B840BBAF09150A1F0FF0FBB1FFD
:10058000661F771F881FC2F70EC0BA0F621F731F46
:10059000841F48F4879577956795B795F7959E3FA3
:1005A00008F0B3CF9395880F08F09927EE0F979531
:1005B000879508950CD0E6C0DED040F0D5D030F05D
:1005C00021F45F3F19F0C7C0511110C1CAC0EBD070
:1005D00098F39923C9F35523B1F3951B550BBB270A
:1005E000AA2762177307840738F09F5F5F4F220FB7
:1005F000331F441FAA1FA9F333D00E2E3AF0E0E8B0
:1006000030D091505040E695001CCAF729D0FE2FFB
:1006100027D0660F771F881FBB1F2617370748078D
:10062000AB07B0E809F0BB0B802DBF01FF27935843
:100630005F4F2AF09E3F510568F08DC0D7C05F3FE5
:10064000ECF3983EDCF3869577956795B795F7952B
:100650009F5FC9F7880F911D9695879597F9089523
:10066000E1E0660F771F881FBB1F621773078407BF
:10067000BA0720F0621B730B840BBA0BEE1F88F7CE
:10068000E095089598D088F09F5790F0B92F99275A
:10069000B751A0F0D1F0660F771F881F991F1AF08D
:1006A000BA95C9F712C0B13081F09FD0B1E008957A
:1006B0009CC0672F782F8827B85F39F0B93FCCF3FB
:1006C000869577956795B395D9F73EF49095809583
:1006D000709561957F4F8F4F9F4F0895E89409C0A3
:1006E00097FB3EF490958095709561957F4F8F4F65
:1006F0009F4F9923A9F0F92F96E9BB279395F6957B
:10070000879577956795B795F111F8CFFAF4BB0FF8
:1007100011F460FF1BC06F5F7F4F8F4F9F4F16C05C
:10072000882311F096E911C0772321F09EE8872FE6
:10073000762F05C0662371F096E8862F70E060E0A2
:100740002AF09A95660F771F881FDAF7880F96951B
:10075000879597F9089597F99F6780E870E060E0C2
:1007600008959FEF80EC089500240A94161617064A
:1007700018060906089500240A9412161306140692
:1007800005060895092E0394000C11F4882352F0F5
:10079000BB0F40F4BF2B11F460FF04C06F5F7F4FAD
:1007A0008F4F9F4F089557FD9058440F551F59F094
:1007B0005F3F71F04795880F97FB991F61F09F3F4E
:1007C00079F087950895121613061406551FF2CF77
:1007D0004695F1DF08C0161617061806991FF1CFC7
:1007E00086957105610508940895E894BB276627EE
:1007F0007727CB0197F908950BD0C4CFB5DF28F048
:10080000BADF18F0952309F0A6CFABCF1124EECFB5
:10081000CADFA0F3959FD1F3950F50E0551F629F5B
:10082000F001729FBB27F00DB11D639FAA27F00D49
:10083000B11DAA1F649F6627B00DA11D661F829F70
:100840002227B00DA11D621F739FB00DA11D621F55
:10085000839FA00D611D221F749F3327A00D611D72
:10086000231F849F600D211D822F762F6A2F112454
:100870009F5750408AF0E1F088234AF0EE0FFF1FA7
:10088000BB1F661F771F881F91505040A9F79E3FDE
:10089000510570F060CFAACF5F3FECF3983EDCF3D8
:1008A000869577956795B795F795E7959F5FC1F71B
:1008B000FE2B880F911D9695879597F908957BDFFC
:1008C000E0F09E37D8F09639B8F49E3848F4672F98
:1008D000782F8827985FF9CF8695779567959395B8
:1008E0009539D0F3B62FB1706B0F711D811D20F4B7
:1008F000879577956795939502C01CC077CF88231D
:1009000071F4772321F09850872B762F07C0662348
:1009100011F499270DC09051862B70E060E02AF009
:100920009A95660F771F881FDAF7880F9695879537
:1009300097F908959F3F31F0915020F4879577956E
:100940006795B795880F911D9695879597F90895A6
:10095000EE0FFF1F0590F491E02D0994F894FFCF5E
:02096000030092
:00000001FF
