S0110000537479726D6F64756C2E7372656340
S11300005AC0000075C0000073C0000071C0000039
S11300106FC000008BC1000056C1000069C0000021
S113002067C0000065C0000063C0000061C000003C
S11300305FC000005DC000005BC0000059C000004C
S113004057C0000055C0000053C0000051C000005C
S1130050B9C000004DC000004BC0000049C0000002
S113006047C0000045C0000043C0000041C000007C
S11300703FC000003DC000003BC0000039C000008C
S113008037C0000035C0000033C000002501500116
S1130090500150012101500144015001500150010F
S11300A02901500150015001500150013001370124
S11300B04A0150013E0111241FBECFEFD0E4DEBF40
S11300C0CDBF11E0A0E0B1E0ECEEF3E000E00BBF47
S11300D002C007900D92A230B107D9F721E0A2E047
S11300E0B1E001C01D92A530B207E1F752D17CC145
S11300F087CF559A84B1886184B981B1876081B909
S113010084B5816A84BD85B5836085BDE0E8F0E08F
S11301108081816A8083E1E8F0E08081836080836C
S113012082B1836082B90895813099F4623021F4F8
S113013082B1836082B9089522B181E090E0AC017C
S113014002C0440F551F6A95E2F7BA01622B62B9E7
S11301500895623039F492B1682F660F862B892393
S113016082B90895613031F492B1880F8160892396
S113017082B9089522B190E0AC0102C0440F551F2A
S11301806A95E2F7BA016260622362B90895E4EC09
S1130190F0E011821082A0ECB0E08C9182608C932C
S11301A0A1ECB0E08C9188698C938FE090E091830E
S11301B080830895E0ECF0E0908195FFFDCF80937B
S11301C0C60008951F920F920FB60F9211240BB61A
S11301D00F922F933F934F935F936F937F938F93DC
S11301E09F93AF93BF93EF93FF938091C600909139
S11301F004019923E1F090910001913041F028F03D
S1130200923069F0933029F00CC087BD0AC088BDD4
S113021008C090E0909389008093880002C087BD55
S113022088BD84E0809300011092040139C090E0FD
S1130230FC01E256F109E531F10590F5EA5BFF4F67
S1130240CDC062E081E070DF2BC062E080E06CDF53
S113025027C061E081E068DF60E080E065DF20C006
S113026060E081E061DF61E080E05EDF19C082E090
S11302708093000181E08093040112C01092000178
S113028081E0809304010CC081E08093000180939D
S1130290040106C083E08093000181E0809304019F
S11302A0FF91EF91BF91AF919F918F917F916F914A
S11302B05F914F913F912F910F900BBE0F900FBE06
S11302C00F901F9018951F920F920FB60F92112442
S11302D00BB60F922F933F934F935F936F937F933C
S11302E08F939F93AF93BF93EF93FF9380910301F9
S11302F0811107C08FE590E05DDF81E08093030109
S113030002C010920301FF91EF91BF91AF919F91B1
S11303108F917F916F915F914F913F912F910F90AA
S11303200BBE0F900FBE0F901F9018951F920F9247
S11303300FB60F9211240BB60F922F933F934F9346
S11303405F936F937F938F939F93AF93BF93EF9339
S1130350FF9380910201811107C080E690E02ADFBB
S113036081E08093020102C010920201FF91EF919B
S1130370BF91AF919F918F917F916F915F914F91B9
S11303803F912F910F900BBE0F900FBE0F901F90B7
S11303901895AFDE17BC18BC109289001092880023
S11303A038982198409A299AEDE6F0E0808181609E
S11303B08083E8E6F0E0808184608083ACE6B0E08E
S11303C08C9182608C93808182608083E9E6F0E086
S11303D0808180628083DBDE7894FFCFEE0FFF1F85
S10F03E00590F491E02D0994F894FFCFEF
S10503EC040007
S9030000FC
